{
  "contractName": "Vox",
  "abi": [
    {
      "inputs": [
        {
          "internalType": "address",
          "name": "operator",
          "type": "address"
        }
      ],
      "name": "OperatorNotAllowed",
      "type": "error"
    },
    {
      "inputs": [],
      "name": "OPERATOR_FILTER_REGISTRY",
      "outputs": [
        {
          "internalType": "contract IOperatorFilterRegistry",
          "name": "",
          "type": "address"
        }
      ],
      "stateMutability": "view",
      "type": "function"
    }
  ],
  "bytecode": "0x608080604052346100b3576daaeb6d7670e522a718067333cd4e803b61002e575b604051608690816100b98239f35b803b156100b3578160448160008094633e9f1edf60e11b8352306004840152733cc6cdda760b79bafa08df41ecfa224f810dceb660248401525af180156100a75761007a575b80610020565b6001600160401b0381116100915760405238610074565b634e487b7160e01b600052604160045260246000fd5b6040513d6000823e3d90fd5b600080fdfe6080806040526004361015601257600080fd5b600090813560e01c6341f4343414602857600080fd5b34604c5781600319360112604c57806daaeb6d7670e522a718067333cd4e60209252f35b5080fdfea2646970667358221220b271dbce6d829a9d7943be4f38cf3110ea0c89a0d836a56e43b036f8fb7e5b2264736f6c63430008130033",
  "immutableReferences": {},
  "source": "// SPDX-License-Identifier: MIT\r\n\r\npragma solidity ^0.8.13;\r\n\r\nimport \"operator-filter-registry/src/DefaultOperatorFilterer.sol\";\r\n\r\ncontract Vox is DefaultOperatorFilterer {\r\n\r\n}\r\n",
  "sourcePath": "D:\\workspace\\projects\\test\\contracts\\Vox.sol",
  "compiler": {
    "name": "solc",
    "version": "0.8.19+commit.7dd6d404.Emscripten.clang"
  },
  "schemaVersion": "3.4.14",
  "updatedAt": "2023-06-13T20:58:36.243Z",
  "devdoc": {
    "errors": {
      "OperatorNotAllowed(address)": [
        {
          "details": "Emitted when an operator is not allowed."
        }
      ]
    },
    "kind": "dev",
    "methods": {},
    "version": 1
  },
  "userdoc": {
    "kind": "user",
    "methods": {},
    "version": 1
  }
}